:100000009AC0B4C07AC6B2C0B1C0B0C0AFC0AEC0B2
:10001000ADC0ACC0ABC0AAC0A9C0A8C0A7C089C4AD
:100020006CC7A4C0DAC0A2C0A1C0A0C09FC09EC0BF
:100030009DC09CC09BC09AC099C098C097C096C0F4
:1000400045464765666700202B2D2E30313233340C
:1000500035363738396800417373657274696F6E6D
:10006000206661696C6564206174206C696E653A14
:100070002025640A00616D706C69747564653A20AE
:100080002575252520282575205B565D290A0A003F
:100090006672657175656E63792028737065656435
:1000A00020726567756C6174696F6E293A202569E5
:1000B000205B487A5D0A006672657175656E6379CA
:1000C0002028737065656420706F74656E74696F45
:1000D0006D65746572293A202569205B487A5D0A4E
:1000E00000766F6C746167653A2025750A00637548
:1000F0007272656E743A2025750A006F76657263B8
:10010000757272656E74206C6F6F70733A2025750E
:100110000A00696E666F206E756D6265723A202501
:10012000750A0054696D653A20256C75205B746909
:10013000636B735D0A0011241FBECFEFD2E0DEBFF8
:10014000CDBF11E0A0E0B1E0E0EAF5E102C005902A
:100150000D92AE39B107D9F711E0AEE9B1E001C0B7
:100160001D92A23CB107E1F751D218CA49CF82E4EF
:1001700080937C00EAE7F0E08FEA808310927B00B6
:1001800080818064808308958FB7F89490919F0157
:100190004091A0018FBF892F942F99230CF4CF9603
:1001A0009C01022E232F000C221F330B000C221F58
:1001B000331F822F932F08958FB7F8942091A101B8
:1001C0003091A2018FBF3695279536952795822FBE
:1001D000932F08958091A30108951F920F920FB657
:1001E0000F9211242F933F934F935F936F937F93BD
:1001F0008F939F93AF93BF93EF93FF9360919E0173
:10020000613049F1613020F0623009F046C038C0F9
:1002100040919F015091A001209178003091790088
:1002200031FB3D7F0EF03E6FCA0155230CF4CF9693
:10023000082E892F000C881F990B000C881F991F0E
:10024000FA01E81BF90BCF01820F931F9093A001D5
:1002500080939F0125C02091A1013091A20180913E
:10026000780090917900820F931F369527953695E7
:100270002795821B930B9093A2018093A10110C03C
:1002800080917800909179009695879596958795BD
:100290008093A30110929E0107C08FE790E01ED0CB
:1002A000862F8F5F80939E0180919E01E0E0F1E0B8
:1002B000E80FF11D808180937C00FF91EF91BF9149
:1002C000AF919F918F917F916F915F914F913F91EE
:1002D0002F910F900FBE0F901F9018958C01F894DE
:1002E0002BD42AD079D0C0D000D000D0EDB7FEB743
:1002F000319687E590E09183808313830283CDD884
:100300000F900F900F900F9080E078D081E08BD00D
:1003100000ED17E0C0E9D1E06AD07ED09801CE01AF
:100320000197F1F721503040D1F7F6CFEBE2F0E042
:100330008081826080830895EBE2F0E080818D7F90
:1003400080830895F9DFEAE2F0E0808182608083B3
:10035000089583E08093AA0008958093AB00909362
:10036000AC0008956817790718F484E190E0B6DFCF
:1003700023E06F3F720728F044E06030740710F507
:1003800029C09B01220F331F44E02030340710F5B1
:1003900077232CF0992364F407C033231CF487E1FE
:1003A00090E09CDF99231CF489E190E097DF9A01AB
:1003B000880F991FA901440F551F64E0403056076C
:1003C00060F308C0769567959695879524E0603030
:1003D0007207C0F7C2DF0895E7E2F0E08081846031
:1003E0008083EAE2F0E08081846080830895E8E21F
:1003F000F0E0808194E0892780830895813031F492
:10040000E8E2F0E080818B7F80830895E8E2F0E00D
:100410008081846080830895EBE2F0E0808194E045
:10042000892780830895813031F4EBE2F0E0808108
:100430008B7F80830895EBE2F0E08081846080838D
:100440000895AA2797FDA095BA2FBC01CD012DE7ED
:1004500030E040E050E030D720E032E040E050E0D3
:100460005DD7822F932F0895CF92DF92EF92FF9264
:100470000F931F9320D200D000D000D0EDB7FEB76D
:10048000319623E231E03183208362837383848356
:10049000958303D82091A4013091A5012F5F3F4F90
:1004A0003093A5012093A4010F900F90EDB7FEB7F4
:1004B000319682E191E09183808333832283EDD76B
:1004C0002091B6013091B701EDB7FEB731968BEFB1
:1004D00090E09183808333832283DFD70F900F9046
:1004E0000F900F9077DE00D000D0EDB7FEB73196B9
:1004F0002EEE30E03183208382831382CED70F909B
:100500000F900F900F9058DE00D000D0EDB7FEB7DF
:10051000319621EE30E03183208393838283BDD7EF
:100520000F900F900F900F902FDE8BDF00D000D038
:10053000EDB7FEB7319627EB30E03183208393830C
:100540008283ABD78091BA019091BB010F900F903D
:100550000F900F9076DF00D000D0EDB7FEB7319648
:1005600020E930E0318320839383828396D76091A2
:10057000B8017091B901E090B801F090B90100D0D4
:10058000CDB6DEB60894C11CD11C25E730E0F601DB
:1005900031832083882777FD8095982F24E630E0EB
:1005A00040E050E089D6052E5BE0969587957795DB
:1005B00067955A95D1F7502DF60173836283002712
:1005C000F7FC0095102FC801B70125E431E040E0A9
:1005D00050E072D6052E5BE09695879577956795E6
:1005E0005A95D1F7502DF6017583648356D78DB790
:1005F0009EB706960FB6F8949EBF0FBE8DBF1F9193
:100600000F91FF90EF90DF90CF9008950F931F937D
:10061000CF93DF938FEF85B988B98BB98EB943D16A
:1006200036D190DE96DE9CD1D7DEA1DD80E098E069
:1006300060E8F9D259D4789404EC19E0C0E9D1E02B
:10064000D6DE2BD1F0DE10DF9801CE010197F1F755
:1006500021503040D1F7F4CFCF92DF92EF92FF924A
:100660000F931F93FC017B016901D90112961D9222
:100670001D921D921C92159711961C921E92179610
:100680009C938E93169719967C936E9318971B964E
:100690005C934E931A9731968FEF9FE7BF012BD64D
:1006A000F901758764870894E11CF11C0027F7FCA9
:1006B0000095102F6FEF7FEF8FEF9FE3A801970159
:1006C0002DD6D6011E962D933D934D935C93519755
:1006D0001F910F91FF90EF90DF90CF900895AF9210
:1006E000BF92CF92DF92EF92FF920F931F93CF931F
:1006F000DF936B01EA01BC016C197D092C853D85F6
:10070000261737073CF40F2EFFEFAF2EFFE7BF2E63
:10071000F02D17C088279927821B930B681779073C
:100720003CF40F2EF1E0AF2EF0E8BF2EF02D09C003
:100730008E819F81689F5001699FB00C789FB00C9B
:1007400011249B01442737FD4095542F8A819B81BA
:10075000AC81BD81BC01CD01620F731F841F951F49
:100760002E853F8548895989261737074807590735
:100770007CF42A833B834C835D830F2EFFEFEF2EA7
:10078000FFEFFF2EFFEF0F2FFFE31F2FF02D28C0ED
:10079000EE24FF248701E21AF30A040B150B6E15F1
:1007A0007F05800791077CF4EA82FB820C831D831E
:1007B0000F2EF1E0EF2EF0E0FF2EF0E00F2FF0EC27
:1007C0001F2FF02D0DC06A837B838C839D8328852A
:1007D0003985442737FD4095542F6ED57B018C0118
:1007E000888199818C199D092A853B85A901849F5F
:1007F0009001859F300D949F300D1124D982C882BD
:10080000B501882777FD8095982F442737FD4095BF
:10081000542F620F731F841F951F6E0D7F1D801F45
:10082000911F20E830E040E050E078D5822F932FF0
:10083000A42FB52F813050E895075FEFA5075FEF34
:10084000B50724F481E090E8AFEFBFEF9C01AD0164
:10085000203080E8380780E0480780E0580724F01F
:100860002FEF3FE740E050E0822F932FDF91CF91B1
:100870001F910F91FF90EF90DF90CF90BF90AF90BE
:100880000895FC0112821382148215820895E7E212
:10089000F0E080818D7F8083089586B190E0969509
:1008A0008795817008951092800081E08093810087
:1008B00080936F000895DF93CF9300D0CDB7DEB75C
:1008C0002FB7F8948091A6019091A7019A8389830C
:1008D00080918400909185002FBF29813A8140E06A
:1008E00050E0A90133272227A0E0B0E0282B392BC4
:1008F0004A2B5B2B622F732F842F952F0F900F9015
:10090000CF91DF910895EF92FF920F931F937B0198
:100910008C01D1DF9B01AC012E193F09400B510B1B
:10092000622F732F842F952F1F910F91FF90EF90BF
:1009300008951F920F920FB60F9211248F939F93D9
:100940008091A6019091A70101969093A7018093B1
:10095000A6019F918F910F900FBE0F901F90189539
:100960001092C50082E28093C40082E48093C000AC
:1009700086E08093C20088E18093C10083E091E02B
:100980009093BF018093BE0181E191E09093BD01FE
:100990008093BC0108951F93182F8A3011F48DE0C5
:1009A000FADFE0ECF0E0808185FFFDCF1093C60018
:1009B00080E090E01F910895E0ECF0E080818823D2
:1009C000ECF78091C60090E008950F931F93CF93AA
:1009D000DF93EC018A01673018F081E290E07EDC61
:1009E00088E0C130D80718F083E290E077DC80918E
:1009F000A801680F6093A8016D3770F0862F8C579F
:100A00008093A80180911F018F5F80931F01873021
:100A100018F081E080931F012091A80130E08CE75D
:100A200090E0821B930BE0E2F1E0DF01A80FB91F19
:100A30008C91D89FA001C89F410D1124511DE20F38
:100A4000F31F8081D89F9001C89F210D1124311D73
:100A5000B901640F751FA8E061307A0718F089E6C4
:100A600090E03CDC88279927841B950B821B930B15
:100A70008050984FDC01B695A795CA018050984FD9
:100A8000821B930BFC01F695E795C9018050984FA6
:100A9000841B950BAC0156954795CB018050984F20
:100AA0009695879520911F012330F1F0243028F48A
:100AB000213051F02230C1F50FC0253029F1253009
:100AC000D8F0263089F528C0E801B983A883FB83D4
:100AD000EA839D838C832BC0F80151834083B383C9
:100AE000A2839583848323C0E80199838883BB8391
:100AF000AA83FD83EC831BC0F80191838083538319
:100B00004283B583A48313C0E801F983E8839B8300
:100B10008A83BD83AC830BC0F801B183A083938328
:100B200082835583448303C082EE90E0D7DBDF915C
:100B3000CF911F910F910895E0EDF0E080818A7FC1
:100B40008083E0EEF0E080818A7F8083E0EFF0E058
:100B500080818A7F80830895CF93DF93EC01809119
:100B6000DA0080628093DA008091EA0080628093EC
:100B7000EA008091FA0080628093FA002091D80008
:100B80003091D9008091A901A82FB0E0FE01EA0FB1
:100B9000FB1F2E173F0718F48AE490E09FDBD093E9
:100BA000D300C093D200F093D700E093D600809199
:100BB000E8009091E9009B012A0F3B1F82179307E1
:100BC00018F48EE490E08ADB7093E3006093E20017
:100BD0003093E7002093E6008091F8009091F900AF
:100BE0009A012A0F3B1F8217930718F482E590E0C1
:100BF00075DB5093F3004093F2003093F70020939D
:100C0000F6008091DA008F7D8093DA008091EA000F
:100C10008F7D8093EA008091FA008F7D8093FA00A7
:100C2000DF91CF910895AC016093A901E9E4F0E070
:100C300080818460808380818770873019F084E1AF
:100C400090E04CDB70E09B01240F351F80E12030E9
:100C5000380718F086E190E041DB3093D90020930B
:100C6000D8003093E9002093E8003093F9002093F6
:100C7000F8005093D3004093D2005093E300409388
:100C8000E2005093F3004093F200CA0196958795D5
:100C9000860F971F9093D7008093D6009093E7001C
:100CA0008093E6009093F7008093F6008AE18093AA
:100CB000DA008093EA008093FA0084E08093DB00FE
:100CC0008093EB0081E08093FB008093A50085E09A
:100CD0008093D0008093E0008093F00008952FB7B8
:100CE000F8949093AF018093AE017093AD0160933F
:100CF000AC014093B0012FBF08951F920F920FB621
:100D00000F9211241F932F933F934F935F936F93F1
:100D10007F938F939F93AF93BF93EF93FF93DF9353
:100D2000CF9300D000D000D0CDB7DEB78091AC011A
:100D30009091AD012091AA013091AB01820F931FD8
:100D40009093AB018093AA01192F992369F18091A7
:100D5000AE019091AF01612FAE014F5F5F4F35DE65
:100D60008B819C8160E078E0FDDA8091B00188237E
:100D700041F46B817C814D815E8189819A81ECDEB9
:100D800007C06D817E814B815C8189819A81E4DE1F
:100D9000312F20E08091AA019091AB01821B930B2F
:100DA0009093AB018093AA018091A40080FF03C0BF
:100DB0008EE390E093DA2696DEBFCDBFCF91DF9130
:100DC000FF91EF91BF91AF919F918F917F916F9123
:100DD0005F914F913F912F911F910F900FBE0F90F8
:100DE0001F9018959C018230910518F423E030E0A3
:100DF00016C082E02636380718F020E038E00FC031
:100E00006AE6269FC001369F900D11249C013695FD
:100E10002795329522952F7023273F702327822F05
:100E2000932F0895862F972F089580E090E00895DE
:100E3000ABD908951092B1011092B2011092B30192
:100E40001092B40108952091B1013091B201409106
:100E5000B3015091B401232F342F452F552747FD5F
:100E60005A95822F932F08952091B1013091B201AC
:100E70004091B3015091B401BB2757FDBA95A52FFE
:100E8000942F832F8617970774F4DA01C90101960E
:100E9000A11DB11D8093B1019093B201A093B30144
:100EA000B093B40110C0681779076CF4DA01C90176
:100EB0000197A109B1098093B1019093B201A09368
:100EC000B301B093B4012091B1013091B2014091CE
:100ED000B3015091B401232F342F452F552747FDDF
:100EE0005A95822F932F089583E085BD92E094BD9B
:100EF0008FE387BD90936E0008951F920F920FB6F7
:100F00000F921124CF92DF92EF92FF920F931F93D3
:100F10002F933F934F935F936F937F938F939F9301
:100F2000AF93BF93CF93DF93EF93FF938091B5017E
:100F3000882319F086E690E0D1D981E08093B5014D
:100F400078943AD98D5B924018F08BE690E0C6D940
:100F500033D98855924010F4EFD905C02DD98B585C
:100F6000924008F0E3D961DF8C0180509E4F8150A0
:100F7000944018F084E790E0B1D95ADFEC0180503A
:100F80009E4F8150944018F088E790E0A7D922D96D
:100F9000853B20F04FDF89E290E0A0D9893700F14E
:100FA00052DF99231CF4909581959F4F9E01DD237C
:100FB0001CF4309521953F4F281739078CF080910C
:100FC000B6019091B70101969093B7018093B60155
:100FD0003ADFEC0180509E4F8150944080F00CC06D
:100FE000C801BE0141DFEC0180509E4F815094400A
:100FF00030F083E390E072D98CE790E06FD99E01E6
:10100000DD231CF4309521953F4F63E0269F70014E
:101010003603F00C112481E0E81686E0F80618F09B
:1010200080E890E05BD9C701DDDE8C0128E08130EB
:10103000920718F084E890E051D920976E014D2D69
:10104000441F4427441FB7014ADED093BB01C0931D
:10105000BA011093B9010093B801F8941092B50148
:10106000FF91EF91DF91CF91BF91AF919F918F91C0
:101070007F916F915F914F913F912F911F910F91B0
:10108000FF90EF90DF90CF900F900FBE0F901F90CA
:101090001895ABE0B0E0EEE4F8E05FC15C014B0115
:1010A0007A01FC0117821682838181FD08C06FEFEF
:1010B0007FEFFEC042E050E0E40EF51E04C03E01AA
:1010C0000894611C711CF501D380F401D3FC859157
:1010D000D3FE81914F01882309F4E7C0853259F48A
:1010E000D3FC6591D3FE61914F01653219F0062F53
:1010F00010E01AC085E290E029C0002309F4D5C0B1
:1011000087E490E0602F70E091D1892B39F40332AD
:1011100011F4106103C00C3661F41068F401D3FCC3
:101120000591D3FE01914F0117FFE7CF002309F48A
:10113000BCC080E490E0602F70E078D1892B49F04A
:1011400044E050E0E40EF51E8FE390E0B50179D164
:10115000BACF033629F0033771F00335E1F40AC042
:1011600087010E5F1F4FF70180819181B50169D121
:101170007801A9CF1160F701C080D18003C090E051
:10118000B5015FD1F60110FD859110FF81916F01CE
:101190008823A9F78FCF043611F0093639F517FFE8
:1011A00008C0F701208131814281538184E090E0C1
:1011B0000AC0F701808191819C01442737FD409549
:1011C000542F82E090E0E80EF91E1F7E57FF08C002
:1011D00050954095309521953F4F4F4F5F4F10648C
:1011E000CA01B901A3012AE030E034C00037A9F0F8
:1011F000013730F40835B1F00F3609F056C006C09B
:10120000053739F0083709F050C008C028E030E051
:101210000CC01F7E2AE030E008C01061146220E19B
:1012200030E003C0146020E132E017FF08C0F7018E
:10123000608171818281938144E050E008C0F701B0
:1012400080819181BC0180E090E042E050E0E40EBA
:10125000F51EA30145D1D82ED618012F10E006FFA8
:1012600004C08DE290E0B501ECD004FF13C0FE0194
:10127000ED0DF11D8081803369F080E390E0B501D0
:10128000E0D002FF07C000721070C801885A9F4F5B
:10129000B501D7D0DA94F301ED0DF11D808190E016
:1012A000B501CFD0DD20B1F70ECFF5016681778192
:1012B000CB012B96EEE06DC0629FD001739FF001D1
:1012C000829FE00DF11D649FE00DF11D929FF00DD6
:1012D000839FF00D749FF00D659FF00D9927729F0D
:1012E000B00DE11DF91F639FB00DE11DF91FBD0198
:1012F000CF011124089597FB092E07260AD077FD08
:1013000004D05ED006D000201AF4709561957F4F0E
:101310000895F6F7909581959F4F089597FB092EB4
:1013200005260ED057FD04D05FD00AD0001C38F43B
:1013300050954095309521953F4F4F4F5F4F089501
:10134000F6F790958095709561957F4F8F4F9F4FE1
:1013500008952F923F924F925F926F927F928F9259
:101360009F92AF92BF92CF92DF92EF92FF920F9334
:101370001F93CF93DF93CDB7DEB7CA1BDB0B0FB63E
:10138000F894DEBF0FBECDBF09942A8839884888FB
:101390005F846E847D848C849B84AA84B984C88491
:1013A000DF80EE80FD800C811B81AA81B981CE0F88
:1013B000D11D0FB6F894DEBF0FBECDBFED0108956D
:1013C000AA1BBB1B51E107C0AA1FBB1FA617B7076B
:1013D00010F0A61BB70B881F991F5A95A9F7809587
:1013E0009095BC01CD010895A1E21A2EAA1BBB1B4A
:1013F000FD010DC0AA1FBB1FEE1FFF1FA217B307E1
:10140000E407F50720F0A21BB30BE40BF50B661FF6
:10141000771F881F991F1A9469F7609570958095BA
:1014200090959B01AC01BD01CF010895FC01059091
:10143000061621F00020D9F7C00108953197CF0199
:1014400008950F931F93CF93DF938C01EB018B8152
:1014500081FF1BC082FF0DC02E813F818C819D8149
:101460002817390764F4E881F9810193F983E88347
:1014700006C0E885F985802F0995892B31F48E8186
:101480009F8101969F838E8302C00FEF1FEFC801DB
:10149000DF91CF911F910F910895A0E0B0E0E2E5B8
:1014A000FAE067CFFE01359661917191A091BE017E
:1014B000B091BF0113968C911397886013968C930B
:1014C0008091BE019091BF01AF01E3DDE091BE01CB
:1014D000F091BF012381277F23832096E2E065CF2F
:1014E000FA01AA27283051F1203181F1E8946F9355
:1014F0006E7F6E5F7F4F8F4F9F4FAF4FB1E03ED0FB
:10150000B4E03CD0670F781F891F9A1FA11D680F98
:10151000791F8A1F911DA11D6A0F711D811D911DCB
:10152000A11D20D009F468943F912AE0269F112440
:101530003019305D3193DEF6CF010895462F4770A4
:10154000405D4193B3E00FD0C9F7F6CF462F4F70FF
:10155000405D4A3318F0495D31FD4052419302D05D
:10156000A9F7EACFB4E0A695979587957795679503
:10157000BA95C9F700976105710508959B01AC0103
:101580000A2E06945795479537952795BA95C9F72A
:10159000620F731F841F951FA01D0895F894FFCF3D
:1015A00042464A0000000200000000CB0400000098
:1015B0000000000001000000000000DC0400000149
:1015C00000020406090B0D0F111316181A1C1E2019
:1015D000222527292B2D2F313436383A3C3E4042E4
:1015E0004446494B4D4F51535557595B5D5F6163BD
:1015F0006567696B6D6F71737577787A7C7E8082B1
:10160000848687898B8D8F9092949698999B9D9EC6
:10161000A0A2A3A5A7A8AAACADAFB0B2B3B5B7B806
:10162000BABBBCBEBFC1C2C4C5C6C8C9CACCCDCE78
:0E163000D0D1D2D3D5D6D7D8D9DADCDDDE00C2
:00000001FF
