:100000002DC047C007C545C044C043C042C041C021
:1000100040C03FC03EC03DC03CC03BC03AC0E0C253
:10002000E0C537C06DC035C034C033C032C031C048
:1000300030C02FC02EC02DC02CC02BC02AC029C05C
:10004000417373657274696F6E206661696C656473
:10005000206174206C696E653A20000011241FBE77
:10006000CFEFD2E0DEBFCDBF11E0A0E0B1E0E2EC27
:10007000FDE002C005900D92AE3AB107D9F711E04C
:10008000AEEAB1E001C01D92AA3CB107E1F725D16B
:1000900096C6B6CF82E480937C00EAE7F0E08FEA70
:1000A000808310927B0080818064808308958FB765
:1000B000F8949091AF014091B0018FBF292F342F58
:1000C000C90197FD0BC09C01022E232F000C221F9B
:1000D000330B000C221F331FC9010895CF96F3CFB5
:1000E0008FB7F8942091B1013091B2018FBF36954E
:1000F000279536952795C90108958091B3010895F4
:100100001F920F920FB60F9211242F933F934F938C
:100110006F937F938F939F93EF93FF934091AE01E3
:10012000413009F43EC04130E0F0423009F44EC0A5
:100130004F5F4093AE01E091AE01F0E0E050FF4F21
:10014000808180937C00FF91EF919F918F917F91AF
:100150006F914F913F912F910F900FBE0F901F9075
:1001600018958091AF019091B001609178007091E5
:10017000790071FB7D7F0EF07E6F9C0197FD33C08F
:10018000022E232F000C221F330B000C221F331FC3
:10019000821B930B860F971F9093B0018093AF0142
:1001A000C7CF2091B1013091B20180917800909138
:1001B0007900820F931F3695279536952795821BD8
:1001C000930B9093B2018093B101B2CF80917800EC
:1001D0009091790096958795969587958093B30130
:1001E0001092AE01A8CF215C3F4FCACF8C01F8948A
:1001F0008BD359D080E490E03ED2C8016FD280E02A
:100200005AD081E063D0C0E9D1E050D05AD020ED7F
:1002100037E0CE010197F1F721503040D1F7F5CF0B
:100220005998519A0895599A08955998089583E0D4
:100230008093AA0008958093AB009093AC0008953A
:100240006817790768F123E06F3F7207A8F4660F1B
:10025000771F24E06030720750F497FD1EC0880FAE
:10026000991F660F771F24E060307207B0F3809308
:10027000AB009093AC00089523E06F3F7207B9F391
:10028000769567959695879524E060307207C0F75C
:100290008093AB009093AC00089589E190E0A6DFD5
:1002A00084E190E0A3DF3A9A529A089588B194E0ED
:1002B000892788B90895813011F0429A08954298AB
:1002C00008958BB194E089278BB90895813011F09E
:1002D0005A9A08955A9808950895CF93DF938FEF0F
:1002E00085B988B98BB98EB939D130D199DF9FDF03
:1002F0008ED1D9DFCFDE80E098E060E4D9D268D437
:100300007894C0E9D1E0D2DF23D1E0DF24EC39E0FA
:10031000CE010197F1F721503040D1F7F4CFCF92C1
:10032000DF92EF92FF920F931F93FC017B01690113
:10033000D90112961D921D921D921C92159711962D
:100340001C921E9217969C938E93169719967C93E7
:100350006E9318971B965C934E931A9731968FEF76
:100360009FE7BF01C8D4F901758764870894E11C31
:10037000F11C0027F7FC0095102F6FEF7FEF8FEF38
:100380009FE3A8019701CAD4D6011E962D933D93F1
:100390004D935C9351971F910F91FF90EF90DF90D9
:1003A000CF9008958F929F92AF92BF92CF92DF929B
:1003B000EF92FF920F931F93CF93DF934B01EA01CC
:1003C000AC01461B570B2C853D85241735070CF0D7
:1003D00087C09FEFA92E9FE7B92EC12CD12C7A019F
:1003E0000027F7FC0095102F8A819B81AC81BD818D
:1003F000E80EF91E0A1F1B1F8E859F85A889B989E3
:100400008E159F05A007B1070CF055C08A839B830A
:10041000AC83BD834FEF5FEF6FEF7FE388819981FE
:10042000881999092A853B85FC01E29FC001E39F59
:10043000900DF29F900D112499828882AA2797FD32
:10044000A095BA2FA80EB91ECA1EDB1EA40EB51E9B
:10045000C61ED71EC601B50120E830E040E050E0DE
:100460005DD4C901DA018130F0E89F07FFEFAF07E3
:10047000FFEFBF0724F481E090E8AFEFBFEF9C01EE
:10048000AD01203080E8380780E0480780E0580759
:1004900024F02FEF3FE740E050E0C901DF91CF911A
:1004A0001F910F91FF90EF90DF90CF90BF90AF9092
:1004B0009F908F90089522273327A901281B390B7D
:1004C0004A0B5B0BE216F306040715074CF52A836B
:1004D0003B834C835D8341E050E060E070EC9ECF55
:1004E00088279927821B930B481759074CF481E002
:1004F000A82E80E8B82E8FEFC82E8FEFD82E6FCFA2
:100500008E819F819C01429FC001439F900D529F0D
:10051000900D11245C01CC24B7FCC094DC2C5FCF7F
:10052000EA82FB820C831D8328853985442737FDA9
:100530004095542FC801B701BFD3AB01BC016ECFAA
:10054000FC0112821382148215820895399808954D
:1005500086B190E0969587958170089510928000FD
:1005600081E08093810080936F000895DF93CF93A3
:1005700000D0CDB7DEB72FB7F8948091B401909139
:10058000B5019A83898380918400909185002FBF63
:1005900029813A8140E050E0A90133272227A0E0D9
:1005A000B0E0282B392B4A2B5B2BB901CA010F90E5
:1005B0000F90CF91DF910895EF92FF920F931F93C9
:1005C0007B018C01D3DF9B01AC012E193F09400B4D
:1005D000510BB901CA011F910F91FF90EF9008953F
:1005E0001F920F920FB60F9211248F939F938091B9
:1005F000B4019091B50101969093B5018093B40137
:100600009F918F910F900FBE0F901F901895109291
:10061000C50082E28093C40082E48093C00086E03B
:100620008093C20088E18093C10083E191E09093C0
:10063000C7018093C60181E291E09093C501809348
:10064000C40108951F93182F8A3051F08091C00083
:1006500085FFFCCF1093C60080E090E01F910895C5
:100660008DE0F0DFF3CF8091C00087FFFCCF809159
:10067000C60090E00895CF93DF93FC018491882316
:1006800051F0EF01219660E070E0DCDFFE01219681
:1006900084918823C1F78AE060E070E0D3DFDF91C6
:1006A000CF910895FF920F931F93F82E82958F702C
:1006B00003E011E0F801E80FF11D808160E070E0D7
:1006C000C1DF8FE0F8220F0D111DF801808160E07D
:1006D00070E0B8DF1F910F91FF9008951F93182FBE
:1006E000892FE0DF812FDEDF1F9108950F931F9385
:1006F000CF93DF93EC018A01673008F0D0C088E027
:10070000C130D80708F0CEC0A091B601A60FA093C3
:10071000B601AD3708F055C0B0E0ECEAF1E0EA1BF5
:10072000FB0B8081D89FA001C89F410D1124511D52
:10073000A05DBE4F8C91D89F9001C89F210D1124C0
:10074000311DF901E40FF51FA8E0E130FA0708F0C8
:10075000ACC066277727641B750B621B730B605058
:10076000784F76956795CA018050984F821B930BFE
:10077000969587952050384F241B350B3695279535
:10078000E050F84FF695E79540912F01433009F47A
:1007900053C0443028F1453009F45FC0453040F57E
:1007A000D8011196FC93EE9313963C932E931297D7
:1007B00015967C936E931497DF91CF911F910F91B3
:1007C0000895AC57A093B60180912F018F5F80935D
:1007D0002F01873008F4A0CF81E080932F019CCFB8
:1007E000413009F44BC04230B1F082EE90E0FEDCC3
:1007F0004630D9F7D80111967C936E931396FC93EB
:10080000EE93129715963C932E931497DF91CF9108
:100810001F910F910895D80111963C932E93139632
:100820007C936E9312971596FC93EE931497DF9139
:10083000CF911F910F910895D8011196FC93EE93DB
:1008400013967C936E93129715969C938E931497A0
:10085000DF91CF911F910F910895D80111969C932C
:100860008E931396FC93EE93129715967C936E934A
:100870001497DF91CF911F910F910895D801119690
:100880007C936E9313969C938E9312971596FC937C
:10089000EE931497DF91CF911F910F91089581E20C
:1008A00090E0A4DC83E290E0A1DC89E690E09EDCAD
:1008B0006093B70129B5246029BD860F911D9093DF
:1008C000D9008093D8009093E9008093E80090933A
:1008D000F9008093F8008AE18093DA008093EA00BF
:1008E0008093FA0084E08093DB008093EB0081E04A
:1008F0008093FB008093A50085E08093D0008093D7
:10090000E0008093F0000895E0EDF0E080818A7FC0
:100910008083E0EEF0E080818A7F8083E0EFF0E08A
:1009200080818A7F80830895CF93DF93EC0180914B
:10093000DA0080628093DA008091EA00806280931E
:10094000EA008091FA0080628093FA002091D8003A
:100950003091D9008091B701A82FB0E0FE01EA0FD5
:10096000FB1F2E173F0708F43EC0D093D300C0935F
:10097000D200F093D700E093D6008091E8009091E8
:10098000E9009B012A0F3B1F8217930778F17093B0
:10099000E3006093E2003093E7002093E60080914B
:1009A000F8009091F9009A012A0F3B1F82179307D4
:1009B00000F15093F3004093F2003093F70020933E
:1009C000F6008091DA008F7D8093DA008091EA0052
:1009D0008F7D8093EA008091FA008F7D8093FA00EA
:1009E000DF91CF9108958FE390E000DC83E490E005
:1009F000FDDB87E490E0FADB2FB7F8949093BD011C
:100A00008093BC017093BB016093BA014093BE0117
:100A10002FBF08951F920F920FB60F9211241F93AC
:100A20002F933F934F935F936F937F938F939F93F6
:100A3000AF93BF93EF93FF93DF93CF9300D000D09A
:100A400000D0CDB7DEB76091BA017091BB01809143
:100A5000B8019091B901680F791F7093B901609343
:100A6000B801172F7723D9F48091A40080FD45C0E9
:100A70002696DEBFCDBFCF91DF91FF91EF91BF9161
:100A8000AF919F918F917F916F915F914F913F9126
:100A90002F911F910F900FBE0F901F90189580916E
:100AA000BC019091BD01672FAE014F5F5F4F1EDE0D
:100AB0008B819C8160E078E0C3DB8091BE0188235C
:100AC000A1F06D817E814B815C8189819A812CDFCF
:100AD000312F20E08091B8019091B901821B930BD6
:100AE0009093B9018093B801BFCF6B817C814D8118
:100AF0005E8189819A8118DFEBCF8EE390E076DB0F
:100B00008E339105C0F022E08636920780F46AE6C3
:100B1000869F9001969F300D11243695279532952A
:100B200022952F7023273F702327C901089520E0C5
:100B300038E0C90108952AEC30E0C9010895CB01DD
:100B4000089580E090E00895B2DA08951092BF0110
:100B50001092C0011092C1011092C201089520911B
:100B6000BF013091C0014091C1015091C2019A0171
:100B700044275527C9010895EF92FF920F931F93C1
:100B80002091BF013091C0014091C1015091C2013B
:100B90007A01002711272E193F09400B510B882796
:100BA00077FD8095982F260F371F481F591F2093D8
:100BB000BF013093C0014093C1015093C2019A011B
:100BC00044275527C9011F910F91FF90EF90089579
:100BD00083E085BD92E094BD8FE387BD90936E0066
:100BE00008951F920F920FB60F921124EF92FF9269
:100BF0000F931F932F933F934F935F936F937F9325
:100C00008F939F93AF93BF93CF93DF93EF93FF9314
:100C10008091C301882309F048C081E08093C3011B
:100C200078948FDF8C0190DFEC0167DA8B3508F068
:100C30003FC08D3380F5C801BE019EDFEC019E01EF
:100C4000D7FD2EC063E0269F80013603100D1124CE
:100C5000C80156DF7E014F2D441F4427441FB801B1
:100C6000CBDEF8941092C301FF91EF91DF91CF9109
:100C7000BF91AF919F918F917F916F915F914F91B4
:100C80003F912F911F910F91FF90EF900F900FBE0A
:100C90000F901F90189563DFEC019E01D7FFD2CF14
:100CA000222733272C1B3D0BCDCF8FE590E09EDA1A
:100CB0004DDF87E290E09ADA629FD001739FF001E6
:100CC000829FE00DF11D649FE00DF11D929FF00DDC
:100CD000839FF00D749FF00D659FF00D9927729F13
:100CE000B00DE11DF91F639FB00DE11DF91FBD019E
:100CF000CF011124089597FB092E07260AD077FD0E
:100D000004D027D006D000201AF4709561957F4F4B
:100D10000895F6F7909581959F4F089597FB092EBA
:100D200005260ED057FD04D028D00AD0001C38F478
:100D300050954095309521953F4F4F4F5F4F089507
:100D4000F6F790958095709561957F4F8F4F9F4FE7
:100D50000895AA1BBB1B51E107C0AA1FBB1FA61702
:100D6000B70710F0A61BB70B881F991F5A95A9F754
:100D700080959095BC01CD010895A1E21A2EAA1B81
:100D8000BB1BFD010DC0AA1FBB1FEE1FFF1FA2173B
:100D9000B307E407F50720F0A21BB30BE40BF50B38
:100DA000661F771F881F991F1A9469F760957095C1
:100DB000809590959B01AC01BD01CF010895F894F9
:020DC000FFCF63
:100DC20042464A303132333435363738394142437C
:100DD200444546000000020000000022030000001B
:100DE20000000000010000000000003303000001C9
:100DF20000020406090B0D0F111316181A1C1E20EF
:100E0200222527292B2D2F313436383A3C3E4042B9
:100E12004446494B4D4F51535557595B5D5F616392
:100E22006567696B6D6F71737577787A7C7E808286
:100E3200848687898B8D8F9092949698999B9D9E9C
:100E4200A0A2A3A5A7A8AAACADAFB0B2B3B5B7B8DC
:100E5200BABBBCBEBFC1C2C4C5C6C8C9CACCCDCE4E
:0E0E6200D0D1D2D3D5D6D7D8D9DADCDDDE0098
:00000001FF
